:020000040800F2
:100000003808002089010008E5010008E501000822
:10001000E5010008E5010008E50100080000000016
:10002000000000000000000000000000E5010008E2
:10003000E501000800000000E5010008D505000802
:10004000E5010008E5010008E5010008E5010008F8
:10005000E5010008E5010008E5010008E5010008E8
:10006000E5010008E5010008E5010008E5010008D8
:10007000E5010008E5010008E5010008E5010008C8
:10008000E5010008E5010008E5010008E5010008B8
:10009000E5010008E5010008E5010008E5010008A8
:1000A000E5010008E5010008E5010008E501000898
:1000B000E5010008E5010008E5010008E501000888
:1000C000E5010008E5010008E5010008E501000878
:1000D000E5010008E5010008E5010008E501000868
:1000E000E5010008E5010008E5010008E501000858
:1000F000E5010008E5010008E5010008E501000848
:10010000E5010008E5010008E5010008E501000837
:10011000E5010008E5010008E5010008E501000827
:10012000E5010008E5010008E5010008E501000817
:10013000E5010008E5010008E5010008E501000807
:10014000E5010008E5010008E5010008E5010008F7
:10015000E5010008E5010008E5010008E5010008E7
:10016000E5010008E5010008E5010008E5010008D7
:10017000E5010008E5010008E5010008E5010008C7
:10018000E5010008E501000880B582B000AF104B22
:100190007B60104B3B6007E03B681A1D3A607A6851
:1001A000111D796012681A603A680B4B9A42F3D3BA
:1001B0000A480B494FF000028842B8BF40F8042BB0
:1001C000FFF6FAAF00F05EF80837BD4680BD00BF0D
:1001D000C40A0008000000201400002014000020C1
:1001E0003400002080B400AFFEE700BF80B483B0CD
:1001F00000AF03463960FB7197F90730002B0BDA2B
:100200000D49FB7903F00F03043B3A68D2B21201A7
:10021000D2B20B441A7609E0084997F907303A68D8
:10022000D2B21201D2B20B4483F800230C37BD4680
:100230005DF8047B704700BF00ED00E000E100E0E6
:1002400080B582B000AF78607B68B3F1807F01D366
:10025000012311E00A4B7A6822F07F42013A5A608A
:100260004FF0FF300F21FFF7C1FF054B00229A60CE
:10027000034B07221A60002318460837BD4680BD8D
:1002800010E000E080B5BAB000AF9A4B1A689A4B04
:10029000A3FB02139B091846FFF7D2FF012001219F
:1002A00000F0AAF94FF48050012100F0C3F9934BFC
:1002B00002221A71914BE0221A60904B00229A712F
:1002C0008E4B02225A718D4B0022DA718C488B4979
:1002D00000F0CEF98A480521052200F071FA88481D
:1002E0000621052200F06CFA85480721052200F05E
:1002F00067FA844800F0EEFA824B4FF440421A80CD
:10030000804B4FF482725A807E4B00229A807D4B44
:100310000022DA807B4B00221A817A4B30229A81AC
:10032000784B0022DA817848764900F08FFA7648D7
:10033000012100F013FB7448012100F0EFFA6F4B2C
:1003400000221A716D4B02221A606C4B02225A7104
:100350006A4B0222DA716A48684900F089F9002381
:10036000C7F8E4300023C7F8D8300023C7F8D430EA
:100370000023C7F8D0300023C7F8E0300323C7F8C4
:10038000DC300023C7F8CC303A1DC82310460021CA
:100390001A4600F04DFB0023C7F8E4300DE0D7F813
:1003A000E4309B0007F1E8021344002243F8E42CF8
:1003B000D7F8E4300133C7F8E430D7F8E430312B14
:1003C000EDDD0023C7F8E43019E0D7F8E4309B00F6
:1003D00007F1E8010B4453F8E43C012B05D1BE20A2
:1003E0009621FA2200F092F804E000200021002279
:1003F00000F08CF8D7F8E4300133C7F8E430D7F8D0
:10040000E430312BE1DD3E48022100F0BFF9034624
:10041000002B12D1D7F8E030312B2FDCD7F8E030A9
:100420009B0007F1E8021344012243F8E42CD7F8BB
:10043000E0300133C7F8E03020E000200021002246
:1004400000F064F80023C7F8E0300023C7F8DC3080
:100450000023C7F8E4300DE0D7F8E4309B0007F143
:10046000E8010B44002243F8E42CD7F8E4300133D0
:10047000C7F8E430D7F8E430312BEDDDD7F8E030C1
:10048000322B2BD1D7F8DC309B0007F1E802134464
:10049000002243F8E42CD7F8DC30013B9B0007F145
:1004A000E8010B44002243F8E42CD7F8DC30023B8F
:1004B0009B0007F1E8021344012243F8E42CD7F82B
:1004C000DC30033B9B0007F1E8010B44012243F8B9
:1004D000E42CD7F8DC300133C7F8DC30D7F8DC3057
:1004E000322B02D10323C7F8DC30042000F05EF881
:1004F00067E700BF00000020D34D62102C000020F1
:1005000000000240180000200030014080B582B099
:1005100000AF13460246FA710A46BA717B7100BFFA
:100520002148712100F048FA0346012BF8D000BFA2
:100530001D4B1B899BB203F08003002BF8D1FB7984
:100540009BB21948194600F029FA00BF16487121DC
:1005500000F032FA0346012BF8D000BF124B1B8982
:100560009BB203F08003002BF8D17B799BB20E483D
:10057000194600F013FA00BF0B48712100F01CFA75
:100580000346012BF8D000BF074B1B899BB203F039
:100590008003002BF8D1BB799BB20348194600F0C9
:1005A000FDF90837BD4680BD0030014080B483B0FE
:1005B00000AF0346FB80064BFA881A8000BF044B4D
:1005C0001B88002BFBD10C37BD465DF8047B7047C0
:1005D0001400002080B400AF064B1B88002B05D010
:1005E000044B1B88013B9AB2024B1A80BD465DF852
:1005F000047B70471400002080B483B000AF7860A3
:100600000B46FB70FB78002B06D0094B084A116B98
:100610007A680A431A6306E0054B054A116B7A684B
:10062000D2430A401A630C37BD465DF8047B70471D
:100630000038024080B483B000AF78600B46FB7096
:10064000FB78002B06D0094B084A516C7A680A43A4
:100650005A6406E0054B054A516C7A68D2430A4059
:100660005A640C37BD465DF8047B70470038024081
:1006700080B487B000AF7860396000237B610023CD
:100680003B610023FB6000237B6176E07B690122F4
:1006900002FA03F33B613B681A683B691340FB6055
:1006A000FA683B699A4265D17B681A687B695B008E
:1006B000032101FA03F3DB431A407B681A607B686D
:1006C0001A683B681B7919467B695B0001FA03F3E2
:1006D0001A437B681A603B681B79012B03D03B6887
:1006E0001B79022B2ED17B689A687B695B00032102
:1006F00001FA03F3DB431A407B689A607B689A68CF
:100700003B685B7919467B695B0001FA03F31A4386
:100710007B689A607B685A687B699BB2012101FA09
:1007200003F3DB431A407B685A607B685A683B6876
:100730009B7919467B699BB201FA03F39BB21A437A
:100740007B685A607B68DA687B699BB25B00032137
:1007500001FA03F3DB431A407B68DA607B68DA68EE
:100760003B68DB7919467B695B0001FA03F31A43A6
:100770007B68DA607B6901337B617B690F2B85D9EC
:100780001C37BD465DF8047B704700BF80B485B060
:1007900000AF78600B467B800023FB737B681A698F
:1007A0007B881340002B02D00123FB7301E0002360
:1007B000FB73FB7B18461437BD465DF8047B70471E
:1007C00080B485B000AF786013460A467A807B70AB
:1007D0000023FB600023BB607A787B8803F007036B
:1007E0009B0002FA03F3FB607B88DB089BB21A468E
:1007F0007B88DB089BB219467B68083153F82110CF
:100800007B8803F007039B000F2000FA03F3DB4310
:1008100019407B68083243F822107B88DB089BB2C2
:100820001A467B68083253F82220FB681343BB60EA
:100830007B88DB089BB21A467B680832B96843F8AC
:1008400022101437BD465DF8047B704780B485B034
:1008500000AF786039600023FB817B681B88FB81D7
:10086000FB8903F44153FB813B681A883B685B8832
:1008700013439AB23B689B8813439AB23B68DB8868
:1008800013439AB23B681B8913439AB23B685B8956
:1008900013439AB23B689B8913439AB23B68DB8946
:1008A00013439AB2FB891343FB817B68FA891A8050
:1008B0007B689B8B9BB223F400639AB27B689A831C
:1008C0003B681A8A7B681A821437BD465DF8047B40
:1008D000704700BF80B483B000AF78607B680022AF
:1008E0001A807B6800225A807B6800229A807B688D
:1008F0000022DA807B6800221A817B6800225A81FC
:100900007B6800229A817B680022DA817B6807225B
:100910001A820C37BD465DF8047B704780B483B003
:1009200000AF78600B46FB70FB78002B08D07B682B
:100930001B889BB243F040039AB27B681A8007E0A1
:100940007B681B889BB223F040039AB27B681A80B5
:100950000C37BD465DF8047B704700BF80B483B0A0
:1009600000AF78600B46FB70FB78002B08D07B68EB
:100970009B889BB243F004039AB27B689A8007E09D
:100980007B689B889BB223F004039AB27B689A80B1
:100990000C37BD465DF8047B704700BF80B483B060
:1009A00000AF78600B467B807B687A889A810C3731
:1009B000BD465DF8047B704780B485B000AF7860B9
:1009C0000B46FB700023FB730023BB8100237B815C
:1009D00000233B81FB7803F00F03012202FA03F3AB
:1009E000BB81FB781B09DBB27B817B89012202FA88
:1009F00003F37B817B689B889AB27B8913403B81A0
:100A00007B681B899AB2BB8913409BB2002B05D02F
:100A10003B89002B02D00123FB7301E00023FB7311
:100A2000FB7B18461437BD465DF8047B704700BF5A
:100A3000F0B4840743D0541E002A3ED0CDB2034602
:100A400003E0621E002C38D0144603F8015B9A07BD
:100A5000F7D1032C2AD9CDB245EA05250F2C45EA5A
:100A6000054515D9A4F110073F0903F1100606EB5F
:100A700007161A46156055609560D5601032B2426F
:100A8000F8D104F00F040137032C03EB07130DD941
:100A90001E462246043A032A46F8045BFAD8221F6F
:100AA00022F003020432134404F003042CB1C9B24F
:100AB0001C4403F8011BA342FBD1F0BC7047144651
:040AC0000346C6E73C
:100AC400007A030A00000000000000000102030491
:040AD4000607080900
:0400000508000000EF
:00000001FF
